{
  "_format": "hh-sol-artifact-1",
  "contractName": "AiUp",
  "sourceName": "contracts/AiUp.sol",
  "abi": [
    {
      "inputs": [],
      "stateMutability": "nonpayable",
      "type": "constructor"
    },
    {
      "anonymous": false,
      "inputs": [
        {
          "indexed": true,
          "internalType": "address",
          "name": "owner",
          "type": "address"
        },
        {
          "indexed": true,
          "internalType": "address",
          "name": "approved",
          "type": "address"
        },
        {
          "indexed": true,
          "internalType": "uint256",
          "name": "tokenId",
          "type": "uint256"
        }
      ],
      "name": "Approval",
      "type": "event"
    },
    {
      "anonymous": false,
      "inputs": [
        {
          "indexed": true,
          "internalType": "address",
          "name": "owner",
          "type": "address"
        },
        {
          "indexed": true,
          "internalType": "address",
          "name": "operator",
          "type": "address"
        },
        {
          "indexed": false,
          "internalType": "bool",
          "name": "approved",
          "type": "bool"
        }
      ],
      "name": "ApprovalForAll",
      "type": "event"
    },
    {
      "anonymous": false,
      "inputs": [
        {
          "indexed": true,
          "internalType": "address",
          "name": "minerAddress",
          "type": "address"
        },
        {
          "indexed": false,
          "internalType": "uint256",
          "name": "tokenId",
          "type": "uint256"
        },
        {
          "indexed": false,
          "internalType": "string",
          "name": "tokenURI",
          "type": "string"
        }
      ],
      "name": "Mined",
      "type": "event"
    },
    {
      "anonymous": false,
      "inputs": [
        {
          "indexed": true,
          "internalType": "address",
          "name": "previousOwner",
          "type": "address"
        },
        {
          "indexed": true,
          "internalType": "address",
          "name": "newOwner",
          "type": "address"
        }
      ],
      "name": "OwnershipTransferred",
      "type": "event"
    },
    {
      "anonymous": false,
      "inputs": [
        {
          "indexed": true,
          "internalType": "address",
          "name": "from",
          "type": "address"
        },
        {
          "indexed": true,
          "internalType": "address",
          "name": "to",
          "type": "address"
        },
        {
          "indexed": true,
          "internalType": "uint256",
          "name": "tokenId",
          "type": "uint256"
        }
      ],
      "name": "Transfer",
      "type": "event"
    },
    {
      "inputs": [
        {
          "internalType": "address",
          "name": "to",
          "type": "address"
        },
        {
          "internalType": "uint256",
          "name": "tokenId",
          "type": "uint256"
        }
      ],
      "name": "approve",
      "outputs": [],
      "stateMutability": "nonpayable",
      "type": "function"
    },
    {
      "inputs": [
        {
          "internalType": "address",
          "name": "owner",
          "type": "address"
        }
      ],
      "name": "balanceOf",
      "outputs": [
        {
          "internalType": "uint256",
          "name": "",
          "type": "uint256"
        }
      ],
      "stateMutability": "view",
      "type": "function"
    },
    {
      "inputs": [],
      "name": "baseURI",
      "outputs": [
        {
          "internalType": "string",
          "name": "",
          "type": "string"
        }
      ],
      "stateMutability": "pure",
      "type": "function"
    },
    {
      "inputs": [
        {
          "internalType": "uint256",
          "name": "tokenId",
          "type": "uint256"
        }
      ],
      "name": "getApproved",
      "outputs": [
        {
          "internalType": "address",
          "name": "",
          "type": "address"
        }
      ],
      "stateMutability": "view",
      "type": "function"
    },
    {
      "inputs": [
        {
          "internalType": "address",
          "name": "owner",
          "type": "address"
        },
        {
          "internalType": "address",
          "name": "operator",
          "type": "address"
        }
      ],
      "name": "isApprovedForAll",
      "outputs": [
        {
          "internalType": "bool",
          "name": "",
          "type": "bool"
        }
      ],
      "stateMutability": "view",
      "type": "function"
    },
    {
      "inputs": [],
      "name": "mintToken",
      "outputs": [
        {
          "internalType": "uint256",
          "name": "",
          "type": "uint256"
        }
      ],
      "stateMutability": "payable",
      "type": "function"
    },
    {
      "inputs": [],
      "name": "name",
      "outputs": [
        {
          "internalType": "string",
          "name": "",
          "type": "string"
        }
      ],
      "stateMutability": "view",
      "type": "function"
    },
    {
      "inputs": [],
      "name": "owner",
      "outputs": [
        {
          "internalType": "address",
          "name": "",
          "type": "address"
        }
      ],
      "stateMutability": "view",
      "type": "function"
    },
    {
      "inputs": [
        {
          "internalType": "uint256",
          "name": "tokenId",
          "type": "uint256"
        }
      ],
      "name": "ownerOf",
      "outputs": [
        {
          "internalType": "address",
          "name": "",
          "type": "address"
        }
      ],
      "stateMutability": "view",
      "type": "function"
    },
    {
      "inputs": [],
      "name": "renounceOwnership",
      "outputs": [],
      "stateMutability": "nonpayable",
      "type": "function"
    },
    {
      "inputs": [
        {
          "internalType": "address",
          "name": "from",
          "type": "address"
        },
        {
          "internalType": "address",
          "name": "to",
          "type": "address"
        },
        {
          "internalType": "uint256",
          "name": "tokenId",
          "type": "uint256"
        }
      ],
      "name": "safeTransferFrom",
      "outputs": [],
      "stateMutability": "nonpayable",
      "type": "function"
    },
    {
      "inputs": [
        {
          "internalType": "address",
          "name": "from",
          "type": "address"
        },
        {
          "internalType": "address",
          "name": "to",
          "type": "address"
        },
        {
          "internalType": "uint256",
          "name": "tokenId",
          "type": "uint256"
        },
        {
          "internalType": "bytes",
          "name": "data",
          "type": "bytes"
        }
      ],
      "name": "safeTransferFrom",
      "outputs": [],
      "stateMutability": "nonpayable",
      "type": "function"
    },
    {
      "inputs": [
        {
          "internalType": "address",
          "name": "operator",
          "type": "address"
        },
        {
          "internalType": "bool",
          "name": "approved",
          "type": "bool"
        }
      ],
      "name": "setApprovalForAll",
      "outputs": [],
      "stateMutability": "nonpayable",
      "type": "function"
    },
    {
      "inputs": [
        {
          "internalType": "bytes4",
          "name": "interfaceId",
          "type": "bytes4"
        }
      ],
      "name": "supportsInterface",
      "outputs": [
        {
          "internalType": "bool",
          "name": "",
          "type": "bool"
        }
      ],
      "stateMutability": "view",
      "type": "function"
    },
    {
      "inputs": [],
      "name": "symbol",
      "outputs": [
        {
          "internalType": "string",
          "name": "",
          "type": "string"
        }
      ],
      "stateMutability": "view",
      "type": "function"
    },
    {
      "inputs": [
        {
          "internalType": "uint256",
          "name": "index",
          "type": "uint256"
        }
      ],
      "name": "tokenByIndex",
      "outputs": [
        {
          "internalType": "uint256",
          "name": "",
          "type": "uint256"
        }
      ],
      "stateMutability": "view",
      "type": "function"
    },
    {
      "inputs": [
        {
          "internalType": "address",
          "name": "owner",
          "type": "address"
        },
        {
          "internalType": "uint256",
          "name": "index",
          "type": "uint256"
        }
      ],
      "name": "tokenOfOwnerByIndex",
      "outputs": [
        {
          "internalType": "uint256",
          "name": "",
          "type": "uint256"
        }
      ],
      "stateMutability": "view",
      "type": "function"
    },
    {
      "inputs": [
        {
          "internalType": "uint256",
          "name": "tokenId_",
          "type": "uint256"
        }
      ],
      "name": "tokenURI",
      "outputs": [
        {
          "internalType": "string",
          "name": "",
          "type": "string"
        }
      ],
      "stateMutability": "pure",
      "type": "function"
    },
    {
      "inputs": [],
      "name": "totalSupply",
      "outputs": [
        {
          "internalType": "uint256",
          "name": "",
          "type": "uint256"
        }
      ],
      "stateMutability": "view",
      "type": "function"
    },
    {
      "inputs": [
        {
          "internalType": "address",
          "name": "from",
          "type": "address"
        },
        {
          "internalType": "address",
          "name": "to",
          "type": "address"
        },
        {
          "internalType": "uint256",
          "name": "tokenId",
          "type": "uint256"
        }
      ],
      "name": "transferFrom",
      "outputs": [],
      "stateMutability": "nonpayable",
      "type": "function"
    },
    {
      "inputs": [
        {
          "internalType": "address",
          "name": "newOwner",
          "type": "address"
        }
      ],
      "name": "transferOwnership",
      "outputs": [],
      "stateMutability": "nonpayable",
      "type": "function"
    }
  ],
  "bytecode": "0x60806040523480156200001157600080fd5b506040518060400160405280600d81526020017f4e465420446966667573696f6e000000000000000000000000000000000000008152506040518060400160405280600381526020017f444946000000000000000000000000000000000000000000000000000000000081525081600090816200008f919062000412565b508060019081620000a1919062000412565b505050620000c4620000b8620000ca60201b60201c565b620000d260201b60201c565b620004f9565b600033905090565b6000600a60009054906101000a900473ffffffffffffffffffffffffffffffffffffffff16905081600a60006101000a81548173ffffffffffffffffffffffffffffffffffffffff021916908373ffffffffffffffffffffffffffffffffffffffff1602179055508173ffffffffffffffffffffffffffffffffffffffff168173ffffffffffffffffffffffffffffffffffffffff167f8be0079c531659141344cd1fd0a4f28419497f9722a3daafe3b4186f6b6457e060405160405180910390a35050565b600081519050919050565b7f4e487b7100000000000000000000000000000000000000000000000000000000600052604160045260246000fd5b7f4e487b7100000000000000000000000000000000000000000000000000000000600052602260045260246000fd5b600060028204905060018216806200021a57607f821691505b60208210810362000230576200022f620001d2565b5b50919050565b60008190508160005260206000209050919050565b60006020601f8301049050919050565b600082821b905092915050565b6000600883026200029a7fffffffffffffffffffffffffffffffffffffffffffffffffffffffffffffffff826200025b565b620002a686836200025b565b95508019841693508086168417925050509392505050565b6000819050919050565b6000819050919050565b6000620002f3620002ed620002e784620002be565b620002c8565b620002be565b9050919050565b6000819050919050565b6200030f83620002d2565b620003276200031e82620002fa565b84845462000268565b825550505050565b600090565b6200033e6200032f565b6200034b81848462000304565b505050565b5b8181101562000373576200036760008262000334565b60018101905062000351565b5050565b601f821115620003c2576200038c8162000236565b62000397846200024b565b81016020851015620003a7578190505b620003bf620003b6856200024b565b83018262000350565b50505b505050565b600082821c905092915050565b6000620003e760001984600802620003c7565b1980831691505092915050565b6000620004028383620003d4565b9150826002028217905092915050565b6200041d8262000198565b67ffffffffffffffff811115620004395762000438620001a3565b5b62000445825462000201565b6200045282828562000377565b600060209050601f8311600181146200048a576000841562000475578287015190505b620004818582620003f4565b865550620004f1565b601f1984166200049a8662000236565b60005b82811015620004c4578489015182556001820191506020850194506020810190506200049d565b86831015620004e45784890151620004e0601f891682620003d4565b8355505b6001600288020188555050505b505050505050565b61373180620005096000396000f3fe60806040526004361061012a5760003560e01c80636352211e116100ab57806395d89b411161006f57806395d89b41146103f9578063a22cb46514610424578063b88d4fde1461044d578063c87b56dd14610476578063e985e9c5146104b3578063f2fde38b146104f05761012a565b80636352211e146103125780636c0360eb1461034f57806370a082311461037a578063715018a6146103b75780638da5cb5b146103ce5761012a565b80632004ffd9116100f25780632004ffd91461022857806323b872dd146102465780632f745c591461026f57806342842e0e146102ac5780634f6ccce7146102d55761012a565b806301ffc9a71461012f57806306fdde031461016c578063081812fc14610197578063095ea7b3146101d457806318160ddd146101fd575b600080fd5b34801561013b57600080fd5b5061015660048036038101906101519190612562565b610519565b60405161016391906125aa565b60405180910390f35b34801561017857600080fd5b50610181610593565b60405161018e9190612655565b60405180910390f35b3480156101a357600080fd5b506101be60048036038101906101b991906126ad565b610625565b6040516101cb919061271b565b60405180910390f35b3480156101e057600080fd5b506101fb60048036038101906101f69190612762565b61066b565b005b34801561020957600080fd5b50610212610782565b60405161021f91906127b1565b60405180910390f35b61023061078f565b60405161023d91906127b1565b60405180910390f35b34801561025257600080fd5b5061026d600480360381019061026891906127cc565b6108aa565b005b34801561027b57600080fd5b5061029660048036038101906102919190612762565b61090a565b6040516102a391906127b1565b60405180910390f35b3480156102b857600080fd5b506102d360048036038101906102ce91906127cc565b6109af565b005b3480156102e157600080fd5b506102fc60048036038101906102f791906126ad565b6109cf565b60405161030991906127b1565b60405180910390f35b34801561031e57600080fd5b50610339600480360381019061033491906126ad565b610a40565b604051610346919061271b565b60405180910390f35b34801561035b57600080fd5b50610364610ac6565b6040516103719190612655565b60405180910390f35b34801561038657600080fd5b506103a1600480360381019061039c919061281f565b610b03565b6040516103ae91906127b1565b60405180910390f35b3480156103c357600080fd5b506103cc610bba565b005b3480156103da57600080fd5b506103e3610bce565b6040516103f0919061271b565b60405180910390f35b34801561040557600080fd5b5061040e610bf8565b60405161041b9190612655565b60405180910390f35b34801561043057600080fd5b5061044b60048036038101906104469190612878565b610c8a565b005b34801561045957600080fd5b50610474600480360381019061046f91906129ed565b610ca0565b005b34801561048257600080fd5b5061049d600480360381019061049891906126ad565b610d02565b6040516104aa9190612655565b60405180910390f35b3480156104bf57600080fd5b506104da60048036038101906104d59190612a70565b610dbc565b6040516104e791906125aa565b60405180910390f35b3480156104fc57600080fd5b506105176004803603810190610512919061281f565b610e50565b005b60007f780e9d63000000000000000000000000000000000000000000000000000000007bffffffffffffffffffffffffffffffffffffffffffffffffffffffff1916827bffffffffffffffffffffffffffffffffffffffffffffffffffffffff1916148061058c575061058b82610ed3565b5b9050919050565b6060600080546105a290612adf565b80601f01602080910402602001604051908101604052809291908181526020018280546105ce90612adf565b801561061b5780601f106105f05761010080835404028352916020019161061b565b820191906000526020600020905b8154815290600101906020018083116105fe57829003601f168201915b5050505050905090565b600061063082610fb5565b6004600083815260200190815260200160002060009054906101000a900473ffffffffffffffffffffffffffffffffffffffff169050919050565b600061067682610a40565b90508073ffffffffffffffffffffffffffffffffffffffff168373ffffffffffffffffffffffffffffffffffffffff16036106e6576040517f08c379a00000000000000000000000000000000000000000000000000000000081526004016106dd90612b82565b60405180910390fd5b8073ffffffffffffffffffffffffffffffffffffffff16610705611000565b73ffffffffffffffffffffffffffffffffffffffff16148061073457506107338161072e611000565b610dbc565b5b610773576040517f08c379a000000000000000000000000000000000000000000000000000000000815260040161076a90612c14565b60405180910390fd5b61077d8383611008565b505050565b6000600880549050905090565b600061079a346110c1565b60656107a4610782565b106107e4576040517f08c379a00000000000000000000000000000000000000000000000000000000081526004016107db90612c80565b60405180910390fd5b67016345785d8a0000341461082e576040517f08c379a000000000000000000000000000000000000000000000000000000000815260040161082590612cec565b60405180910390fd5b6000610838610782565b90503373ffffffffffffffffffffffffffffffffffffffff167fae47fc2750c6f53c7c23af82a769012215fafd62acc36b4903fef3fac6a36d7c8261087c84610d02565b60405161088a929190612d0c565b60405180910390a261089c338261115a565b6108a4610782565b91505090565b6108bb6108b5611000565b82611178565b6108fa576040517f08c379a00000000000000000000000000000000000000000000000000000000081526004016108f190612dae565b60405180910390fd5b61090583838361120d565b505050565b600061091583610b03565b8210610956576040517f08c379a000000000000000000000000000000000000000000000000000000000815260040161094d90612e40565b60405180910390fd5b600660008473ffffffffffffffffffffffffffffffffffffffff1673ffffffffffffffffffffffffffffffffffffffff168152602001908152602001600020600083815260200190815260200160002054905092915050565b6109ca83838360405180602001604052806000815250610ca0565b505050565b60006109d9610782565b8210610a1a576040517f08c379a0000000000000000000000000000000000000000000000000000000008152600401610a1190612ed2565b60405180910390fd5b60088281548110610a2e57610a2d612ef2565b5b90600052602060002001549050919050565b600080610a4c83611506565b9050600073ffffffffffffffffffffffffffffffffffffffff168173ffffffffffffffffffffffffffffffffffffffff1603610abd576040517f08c379a0000000000000000000000000000000000000000000000000000000008152600401610ab490612f6d565b60405180910390fd5b80915050919050565b60606040518060400160405280600781526020017f697066733a2f2f00000000000000000000000000000000000000000000000000815250905090565b60008073ffffffffffffffffffffffffffffffffffffffff168273ffffffffffffffffffffffffffffffffffffffff1603610b73576040517f08c379a0000000000000000000000000000000000000000000000000000000008152600401610b6a90612fff565b60405180910390fd5b600360008373ffffffffffffffffffffffffffffffffffffffff1673ffffffffffffffffffffffffffffffffffffffff168152602001908152602001600020549050919050565b610bc2611543565b610bcc60006115c1565b565b6000600a60009054906101000a900473ffffffffffffffffffffffffffffffffffffffff16905090565b606060018054610c0790612adf565b80601f0160208091040260200160405190810160405280929190818152602001828054610c3390612adf565b8015610c805780601f10610c5557610100808354040283529160200191610c80565b820191906000526020600020905b815481529060010190602001808311610c6357829003601f168201915b5050505050905090565b610c9c610c95611000565b8383611687565b5050565b610cb1610cab611000565b83611178565b610cf0576040517f08c379a0000000000000000000000000000000000000000000000000000000008152600401610ce790612dae565b60405180910390fd5b610cfc848484846117f3565b50505050565b60606000610d0f8361184f565b905060006040518060400160405280600181526020017f2f00000000000000000000000000000000000000000000000000000000000000815250905060006040518060400160405280600581526020017f2e6a736f6e0000000000000000000000000000000000000000000000000000008152509050610d8d610ac6565b828483604051602001610da3949392919061305b565b6040516020818303038152906040529350505050919050565b6000600560008473ffffffffffffffffffffffffffffffffffffffff1673ffffffffffffffffffffffffffffffffffffffff16815260200190815260200160002060008373ffffffffffffffffffffffffffffffffffffffff1673ffffffffffffffffffffffffffffffffffffffff16815260200190815260200160002060009054906101000a900460ff16905092915050565b610e58611543565b600073ffffffffffffffffffffffffffffffffffffffff168173ffffffffffffffffffffffffffffffffffffffff1603610ec7576040517f08c379a0000000000000000000000000000000000000000000000000000000008152600401610ebe9061310b565b60405180910390fd5b610ed0816115c1565b50565b60007f80ac58cd000000000000000000000000000000000000000000000000000000007bffffffffffffffffffffffffffffffffffffffffffffffffffffffff1916827bffffffffffffffffffffffffffffffffffffffffffffffffffffffff19161480610f9e57507f5b5e139f000000000000000000000000000000000000000000000000000000007bffffffffffffffffffffffffffffffffffffffffffffffffffffffff1916827bffffffffffffffffffffffffffffffffffffffffffffffffffffffff1916145b80610fae5750610fad8261191d565b5b9050919050565b610fbe81611987565b610ffd576040517f08c379a0000000000000000000000000000000000000000000000000000000008152600401610ff490612f6d565b60405180910390fd5b50565b600033905090565b816004600083815260200190815260200160002060006101000a81548173ffffffffffffffffffffffffffffffffffffffff021916908373ffffffffffffffffffffffffffffffffffffffff160217905550808273ffffffffffffffffffffffffffffffffffffffff1661107b83610a40565b73ffffffffffffffffffffffffffffffffffffffff167f8c5be1e5ebec7d5bd14f71427d1e84f3dd0314c0f7b2291e5b200ac8c7c3b92560405160405180910390a45050565b611157816040516024016110d591906127b1565b6040516020818303038152906040527ff82c50f1000000000000000000000000000000000000000000000000000000007bffffffffffffffffffffffffffffffffffffffffffffffffffffffff19166020820180517bffffffffffffffffffffffffffffffffffffffffffffffffffffffff83818316178352505050506119c8565b50565b6111748282604051806020016040528060008152506119f1565b5050565b60008061118483610a40565b90508073ffffffffffffffffffffffffffffffffffffffff168473ffffffffffffffffffffffffffffffffffffffff1614806111c657506111c58185610dbc565b5b8061120457508373ffffffffffffffffffffffffffffffffffffffff166111ec84610625565b73ffffffffffffffffffffffffffffffffffffffff16145b91505092915050565b8273ffffffffffffffffffffffffffffffffffffffff1661122d82610a40565b73ffffffffffffffffffffffffffffffffffffffff1614611283576040517f08c379a000000000000000000000000000000000000000000000000000000000815260040161127a9061319d565b60405180910390fd5b600073ffffffffffffffffffffffffffffffffffffffff168273ffffffffffffffffffffffffffffffffffffffff16036112f2576040517f08c379a00000000000000000000000000000000000000000000000000000000081526004016112e99061322f565b60405180910390fd5b6112ff8383836001611a4c565b8273ffffffffffffffffffffffffffffffffffffffff1661131f82610a40565b73ffffffffffffffffffffffffffffffffffffffff1614611375576040517f08c379a000000000000000000000000000000000000000000000000000000000815260040161136c9061319d565b60405180910390fd5b6004600082815260200190815260200160002060006101000a81549073ffffffffffffffffffffffffffffffffffffffff02191690556001600360008573ffffffffffffffffffffffffffffffffffffffff1673ffffffffffffffffffffffffffffffffffffffff168152602001908152602001600020600082825403925050819055506001600360008473ffffffffffffffffffffffffffffffffffffffff1673ffffffffffffffffffffffffffffffffffffffff16815260200190815260200160002060008282540192505081905550816002600083815260200190815260200160002060006101000a81548173ffffffffffffffffffffffffffffffffffffffff021916908373ffffffffffffffffffffffffffffffffffffffff160217905550808273ffffffffffffffffffffffffffffffffffffffff168473ffffffffffffffffffffffffffffffffffffffff167fddf252ad1be2c89b69c2b068fc378daa952ba7f163c4a11628f55a4df523b3ef60405160405180910390a46115018383836001611baa565b505050565b60006002600083815260200190815260200160002060009054906101000a900473ffffffffffffffffffffffffffffffffffffffff169050919050565b61154b611000565b73ffffffffffffffffffffffffffffffffffffffff16611569610bce565b73ffffffffffffffffffffffffffffffffffffffff16146115bf576040517f08c379a00000000000000000000000000000000000000000000000000000000081526004016115b69061329b565b60405180910390fd5b565b6000600a60009054906101000a900473ffffffffffffffffffffffffffffffffffffffff16905081600a60006101000a81548173ffffffffffffffffffffffffffffffffffffffff021916908373ffffffffffffffffffffffffffffffffffffffff1602179055508173ffffffffffffffffffffffffffffffffffffffff168173ffffffffffffffffffffffffffffffffffffffff167f8be0079c531659141344cd1fd0a4f28419497f9722a3daafe3b4186f6b6457e060405160405180910390a35050565b8173ffffffffffffffffffffffffffffffffffffffff168373ffffffffffffffffffffffffffffffffffffffff16036116f5576040517f08c379a00000000000000000000000000000000000000000000000000000000081526004016116ec90613307565b60405180910390fd5b80600560008573ffffffffffffffffffffffffffffffffffffffff1673ffffffffffffffffffffffffffffffffffffffff16815260200190815260200160002060008473ffffffffffffffffffffffffffffffffffffffff1673ffffffffffffffffffffffffffffffffffffffff16815260200190815260200160002060006101000a81548160ff0219169083151502179055508173ffffffffffffffffffffffffffffffffffffffff168373ffffffffffffffffffffffffffffffffffffffff167f17307eab39ab6107e8899845ad3d59bd9653f200f220920489ca2b5937696c31836040516117e691906125aa565b60405180910390a3505050565b6117fe84848461120d565b61180a84848484611bb0565b611849576040517f08c379a000000000000000000000000000000000000000000000000000000000815260040161184090613399565b60405180910390fd5b50505050565b60606000600161185e84611d37565b01905060008167ffffffffffffffff81111561187d5761187c6128c2565b5b6040519080825280601f01601f1916602001820160405280156118af5781602001600182028036833780820191505090505b509050600082602001820190505b600115611912578080600190039150507f3031323334353637383961626364656600000000000000000000000000000000600a86061a8153600a8581611906576119056133b9565b5b049450600085036118bd575b819350505050919050565b60007f01ffc9a7000000000000000000000000000000000000000000000000000000007bffffffffffffffffffffffffffffffffffffffffffffffffffffffff1916827bffffffffffffffffffffffffffffffffffffffffffffffffffffffff1916149050919050565b60008073ffffffffffffffffffffffffffffffffffffffff166119a983611506565b73ffffffffffffffffffffffffffffffffffffffff1614159050919050565b60008151905060006a636f6e736f6c652e6c6f679050602083016000808483855afa5050505050565b6119fb8383611e8a565b611a086000848484611bb0565b611a47576040517f08c379a0000000000000000000000000000000000000000000000000000000008152600401611a3e90613399565b60405180910390fd5b505050565b611a58848484846120a7565b6001811115611a9c576040517f08c379a0000000000000000000000000000000000000000000000000000000008152600401611a939061345a565b60405180910390fd5b6000829050600073ffffffffffffffffffffffffffffffffffffffff168573ffffffffffffffffffffffffffffffffffffffff1603611ae357611ade816121cd565b611b22565b8373ffffffffffffffffffffffffffffffffffffffff168573ffffffffffffffffffffffffffffffffffffffff1614611b2157611b208582612216565b5b5b600073ffffffffffffffffffffffffffffffffffffffff168473ffffffffffffffffffffffffffffffffffffffff1603611b6457611b5f81612383565b611ba3565b8473ffffffffffffffffffffffffffffffffffffffff168473ffffffffffffffffffffffffffffffffffffffff1614611ba257611ba18482612454565b5b5b5050505050565b50505050565b6000611bd18473ffffffffffffffffffffffffffffffffffffffff166124d3565b15611d2a578373ffffffffffffffffffffffffffffffffffffffff1663150b7a02611bfa611000565b8786866040518563ffffffff1660e01b8152600401611c1c94939291906134cf565b6020604051808303816000875af1925050508015611c5857506040513d601f19601f82011682018060405250810190611c559190613530565b60015b611cda573d8060008114611c88576040519150601f19603f3d011682016040523d82523d6000602084013e611c8d565b606091505b506000815103611cd2576040517f08c379a0000000000000000000000000000000000000000000000000000000008152600401611cc990613399565b60405180910390fd5b805181602001fd5b63150b7a0260e01b7bffffffffffffffffffffffffffffffffffffffffffffffffffffffff1916817bffffffffffffffffffffffffffffffffffffffffffffffffffffffff191614915050611d2f565b600190505b949350505050565b600080600090507a184f03e93ff9f4daa797ed6e38ed64bf6a1f0100000000000000008310611d95577a184f03e93ff9f4daa797ed6e38ed64bf6a1f0100000000000000008381611d8b57611d8a6133b9565b5b0492506040810190505b6d04ee2d6d415b85acef81000000008310611dd2576d04ee2d6d415b85acef81000000008381611dc857611dc76133b9565b5b0492506020810190505b662386f26fc100008310611e0157662386f26fc100008381611df757611df66133b9565b5b0492506010810190505b6305f5e1008310611e2a576305f5e1008381611e2057611e1f6133b9565b5b0492506008810190505b6127108310611e4f576127108381611e4557611e446133b9565b5b0492506004810190505b60648310611e725760648381611e6857611e676133b9565b5b0492506002810190505b600a8310611e81576001810190505b80915050919050565b600073ffffffffffffffffffffffffffffffffffffffff168273ffffffffffffffffffffffffffffffffffffffff1603611ef9576040517f08c379a0000000000000000000000000000000000000000000000000000000008152600401611ef0906135a9565b60405180910390fd5b611f0281611987565b15611f42576040517f08c379a0000000000000000000000000000000000000000000000000000000008152600401611f3990613615565b60405180910390fd5b611f50600083836001611a4c565b611f5981611987565b15611f99576040517f08c379a0000000000000000000000000000000000000000000000000000000008152600401611f9090613615565b60405180910390fd5b6001600360008473ffffffffffffffffffffffffffffffffffffffff1673ffffffffffffffffffffffffffffffffffffffff16815260200190815260200160002060008282540192505081905550816002600083815260200190815260200160002060006101000a81548173ffffffffffffffffffffffffffffffffffffffff021916908373ffffffffffffffffffffffffffffffffffffffff160217905550808273ffffffffffffffffffffffffffffffffffffffff16600073ffffffffffffffffffffffffffffffffffffffff167fddf252ad1be2c89b69c2b068fc378daa952ba7f163c4a11628f55a4df523b3ef60405160405180910390a46120a3600083836001611baa565b5050565b60018111156121c757600073ffffffffffffffffffffffffffffffffffffffff168473ffffffffffffffffffffffffffffffffffffffff161461213b5780600360008673ffffffffffffffffffffffffffffffffffffffff1673ffffffffffffffffffffffffffffffffffffffff16815260200190815260200160002060008282546121339190613664565b925050819055505b600073ffffffffffffffffffffffffffffffffffffffff168373ffffffffffffffffffffffffffffffffffffffff16146121c65780600360008573ffffffffffffffffffffffffffffffffffffffff1673ffffffffffffffffffffffffffffffffffffffff16815260200190815260200160002060008282546121be9190613698565b925050819055505b5b50505050565b6008805490506009600083815260200190815260200160002081905550600881908060018154018082558091505060019003906000526020600020016000909190919091505550565b6000600161222384610b03565b61222d9190613664565b9050600060076000848152602001908152602001600020549050818114612312576000600660008673ffffffffffffffffffffffffffffffffffffffff1673ffffffffffffffffffffffffffffffffffffffff168152602001908152602001600020600084815260200190815260200160002054905080600660008773ffffffffffffffffffffffffffffffffffffffff1673ffffffffffffffffffffffffffffffffffffffff168152602001908152602001600020600084815260200190815260200160002081905550816007600083815260200190815260200160002081905550505b6007600084815260200190815260200160002060009055600660008573ffffffffffffffffffffffffffffffffffffffff1673ffffffffffffffffffffffffffffffffffffffff16815260200190815260200160002060008381526020019081526020016000206000905550505050565b600060016008805490506123979190613664565b90506000600960008481526020019081526020016000205490506000600883815481106123c7576123c6612ef2565b5b9060005260206000200154905080600883815481106123e9576123e8612ef2565b5b906000526020600020018190555081600960008381526020019081526020016000208190555060096000858152602001908152602001600020600090556008805480612438576124376136cc565b5b6001900381819060005260206000200160009055905550505050565b600061245f83610b03565b905081600660008573ffffffffffffffffffffffffffffffffffffffff1673ffffffffffffffffffffffffffffffffffffffff168152602001908152602001600020600083815260200190815260200160002081905550806007600084815260200190815260200160002081905550505050565b6000808273ffffffffffffffffffffffffffffffffffffffff163b119050919050565b6000604051905090565b600080fd5b600080fd5b60007fffffffff0000000000000000000000000000000000000000000000000000000082169050919050565b61253f8161250a565b811461254a57600080fd5b50565b60008135905061255c81612536565b92915050565b60006020828403121561257857612577612500565b5b60006125868482850161254d565b91505092915050565b60008115159050919050565b6125a48161258f565b82525050565b60006020820190506125bf600083018461259b565b92915050565b600081519050919050565b600082825260208201905092915050565b60005b838110156125ff5780820151818401526020810190506125e4565b60008484015250505050565b6000601f19601f8301169050919050565b6000612627826125c5565b61263181856125d0565b93506126418185602086016125e1565b61264a8161260b565b840191505092915050565b6000602082019050818103600083015261266f818461261c565b905092915050565b6000819050919050565b61268a81612677565b811461269557600080fd5b50565b6000813590506126a781612681565b92915050565b6000602082840312156126c3576126c2612500565b5b60006126d184828501612698565b91505092915050565b600073ffffffffffffffffffffffffffffffffffffffff82169050919050565b6000612705826126da565b9050919050565b612715816126fa565b82525050565b6000602082019050612730600083018461270c565b92915050565b61273f816126fa565b811461274a57600080fd5b50565b60008135905061275c81612736565b92915050565b6000806040838503121561277957612778612500565b5b60006127878582860161274d565b925050602061279885828601612698565b9150509250929050565b6127ab81612677565b82525050565b60006020820190506127c660008301846127a2565b92915050565b6000806000606084860312156127e5576127e4612500565b5b60006127f38682870161274d565b93505060206128048682870161274d565b925050604061281586828701612698565b9150509250925092565b60006020828403121561283557612834612500565b5b60006128438482850161274d565b91505092915050565b6128558161258f565b811461286057600080fd5b50565b6000813590506128728161284c565b92915050565b6000806040838503121561288f5761288e612500565b5b600061289d8582860161274d565b92505060206128ae85828601612863565b9150509250929050565b600080fd5b600080fd5b7f4e487b7100000000000000000000000000000000000000000000000000000000600052604160045260246000fd5b6128fa8261260b565b810181811067ffffffffffffffff82111715612919576129186128c2565b5b80604052505050565b600061292c6124f6565b905061293882826128f1565b919050565b600067ffffffffffffffff821115612958576129576128c2565b5b6129618261260b565b9050602081019050919050565b82818337600083830152505050565b600061299061298b8461293d565b612922565b9050828152602081018484840111156129ac576129ab6128bd565b5b6129b784828561296e565b509392505050565b600082601f8301126129d4576129d36128b8565b5b81356129e484826020860161297d565b91505092915050565b60008060008060808587031215612a0757612a06612500565b5b6000612a158782880161274d565b9450506020612a268782880161274d565b9350506040612a3787828801612698565b925050606085013567ffffffffffffffff811115612a5857612a57612505565b5b612a64878288016129bf565b91505092959194509250565b60008060408385031215612a8757612a86612500565b5b6000612a958582860161274d565b9250506020612aa68582860161274d565b9150509250929050565b7f4e487b7100000000000000000000000000000000000000000000000000000000600052602260045260246000fd5b60006002820490506001821680612af757607f821691505b602082108103612b0a57612b09612ab0565b5b50919050565b7f4552433732313a20617070726f76616c20746f2063757272656e74206f776e6560008201527f7200000000000000000000000000000000000000000000000000000000000000602082015250565b6000612b6c6021836125d0565b9150612b7782612b10565b604082019050919050565b60006020820190508181036000830152612b9b81612b5f565b9050919050565b7f4552433732313a20617070726f76652063616c6c6572206973206e6f7420746f60008201527f6b656e206f776e6572206f7220617070726f76656420666f7220616c6c000000602082015250565b6000612bfe603d836125d0565b9150612c0982612ba2565b604082019050919050565b60006020820190508181036000830152612c2d81612bf1565b9050919050565b7f4d6178696d756d20616d6f756e74206f6620696d61676573206d696e74656421600082015250565b6000612c6a6020836125d0565b9150612c7582612c34565b602082019050919050565b60006020820190508181036000830152612c9981612c5d565b9050919050565b7f4d696e742050726963652057726f6e6700000000000000000000000000000000600082015250565b6000612cd66010836125d0565b9150612ce182612ca0565b602082019050919050565b60006020820190508181036000830152612d0581612cc9565b9050919050565b6000604082019050612d2160008301856127a2565b8181036020830152612d33818461261c565b90509392505050565b7f4552433732313a2063616c6c6572206973206e6f7420746f6b656e206f776e6560008201527f72206f7220617070726f76656400000000000000000000000000000000000000602082015250565b6000612d98602d836125d0565b9150612da382612d3c565b604082019050919050565b60006020820190508181036000830152612dc781612d8b565b9050919050565b7f455243373231456e756d657261626c653a206f776e657220696e646578206f7560008201527f74206f6620626f756e6473000000000000000000000000000000000000000000602082015250565b6000612e2a602b836125d0565b9150612e3582612dce565b604082019050919050565b60006020820190508181036000830152612e5981612e1d565b9050919050565b7f455243373231456e756d657261626c653a20676c6f62616c20696e646578206f60008201527f7574206f6620626f756e64730000000000000000000000000000000000000000602082015250565b6000612ebc602c836125d0565b9150612ec782612e60565b604082019050919050565b60006020820190508181036000830152612eeb81612eaf565b9050919050565b7f4e487b7100000000000000000000000000000000000000000000000000000000600052603260045260246000fd5b7f4552433732313a20696e76616c696420746f6b656e2049440000000000000000600082015250565b6000612f576018836125d0565b9150612f6282612f21565b602082019050919050565b60006020820190508181036000830152612f8681612f4a565b9050919050565b7f4552433732313a2061646472657373207a65726f206973206e6f74206120766160008201527f6c6964206f776e65720000000000000000000000000000000000000000000000602082015250565b6000612fe96029836125d0565b9150612ff482612f8d565b604082019050919050565b6000602082019050818103600083015261301881612fdc565b9050919050565b600081905092915050565b6000613035826125c5565b61303f818561301f565b935061304f8185602086016125e1565b80840191505092915050565b6000613067828761302a565b9150613073828661302a565b915061307f828561302a565b915061308b828461302a565b915081905095945050505050565b7f4f776e61626c653a206e6577206f776e657220697320746865207a65726f206160008201527f6464726573730000000000000000000000000000000000000000000000000000602082015250565b60006130f56026836125d0565b915061310082613099565b604082019050919050565b60006020820190508181036000830152613124816130e8565b9050919050565b7f4552433732313a207472616e736665722066726f6d20696e636f72726563742060008201527f6f776e6572000000000000000000000000000000000000000000000000000000602082015250565b60006131876025836125d0565b91506131928261312b565b604082019050919050565b600060208201905081810360008301526131b68161317a565b9050919050565b7f4552433732313a207472616e7366657220746f20746865207a65726f2061646460008201527f7265737300000000000000000000000000000000000000000000000000000000602082015250565b60006132196024836125d0565b9150613224826131bd565b604082019050919050565b600060208201905081810360008301526132488161320c565b9050919050565b7f4f776e61626c653a2063616c6c6572206973206e6f7420746865206f776e6572600082015250565b60006132856020836125d0565b91506132908261324f565b602082019050919050565b600060208201905081810360008301526132b481613278565b9050919050565b7f4552433732313a20617070726f766520746f2063616c6c657200000000000000600082015250565b60006132f16019836125d0565b91506132fc826132bb565b602082019050919050565b60006020820190508181036000830152613320816132e4565b9050919050565b7f4552433732313a207472616e7366657220746f206e6f6e20455243373231526560008201527f63656976657220696d706c656d656e7465720000000000000000000000000000602082015250565b60006133836032836125d0565b915061338e82613327565b604082019050919050565b600060208201905081810360008301526133b281613376565b9050919050565b7f4e487b7100000000000000000000000000000000000000000000000000000000600052601260045260246000fd5b7f455243373231456e756d657261626c653a20636f6e736563757469766520747260008201527f616e7366657273206e6f7420737570706f727465640000000000000000000000602082015250565b60006134446035836125d0565b915061344f826133e8565b604082019050919050565b6000602082019050818103600083015261347381613437565b9050919050565b600081519050919050565b600082825260208201905092915050565b60006134a18261347a565b6134ab8185613485565b93506134bb8185602086016125e1565b6134c48161260b565b840191505092915050565b60006080820190506134e4600083018761270c565b6134f1602083018661270c565b6134fe60408301856127a2565b81810360608301526135108184613496565b905095945050505050565b60008151905061352a81612536565b92915050565b60006020828403121561354657613545612500565b5b60006135548482850161351b565b91505092915050565b7f4552433732313a206d696e7420746f20746865207a65726f2061646472657373600082015250565b60006135936020836125d0565b915061359e8261355d565b602082019050919050565b600060208201905081810360008301526135c281613586565b9050919050565b7f4552433732313a20746f6b656e20616c7265616479206d696e74656400000000600082015250565b60006135ff601c836125d0565b915061360a826135c9565b602082019050919050565b6000602082019050818103600083015261362e816135f2565b9050919050565b7f4e487b7100000000000000000000000000000000000000000000000000000000600052601160045260246000fd5b600061366f82612677565b915061367a83612677565b925082820390508181111561369257613691613635565b5b92915050565b60006136a382612677565b91506136ae83612677565b92508282019050808211156136c6576136c5613635565b5b92915050565b7f4e487b7100000000000000000000000000000000000000000000000000000000600052603160045260246000fdfea26469706673582212204e550883f7061a7646fa253626c0cded83d4eeaa7d02aff1a769e7e89dc8e1b864736f6c63430008110033",
  "linkReferences": {},
  "deployedLinkReferences": {}
}